:100000000C9462000C948A000C948A000C948A0070
:100010000C948A000C948A000C948A000C948A0038
:100020000C948A000C948A000C94F5000C948A00BD
:100030000C948A000C948A000C948A000C948A0018
:100040000C94AB000C948A000C948A000C948A00E7
:100050000C948A000C948A000C948A000C948A00F8
:100060000C948A000C948A0005A84CCDB2D44EB9E9
:100070003836A9020C50B9918688083CA6AAAA2A4B
:10008000BE000000803F00000000250028002B007B
:1000900000000000240027002A00040404040404D3
:1000A0000404020202020202030303030303010227
:1000B00004081020408001020408102001020408F6
:1000C0001020290211241FBECFEFD8E0DEBFCDBF24
:1000D00011E0A0E0B1E0ECE9FAE002C005900D9279
:1000E000A230B107D9F721E0A2E0B1E001C01D9232
:1000F000A331B207E1F710E0C2E6D0E004C02197D7
:10010000FE010E944605C136D107C9F70E946F0162
:100110000C944C050C94000090E0FC01E255FF4F5C
:10012000249186569F4FFC018491882399F090E09A
:10013000880F991FFC01E057FF4FA591B491FC0176
:10014000EA57FF4F859194918FB7F894EC91E22B89
:10015000EC938FBF08951F920F920FB60F92112448
:100160002F933F938F939F93AF93BF9380910F01F2
:1001700090911001A0911101B091120130910E01E6
:1001800023E0230F2D3758F50196A11DB11D2093B3
:100190000E0180930F0190931001A0931101B09371
:1001A000120180910A0190910B01A0910C01B09174
:1001B0000D010196A11DB11D80930A0190930B01C1
:1001C000A0930C01B0930D01BF91AF919F918F91BE
:1001D0003F912F910F900FBE0F901F90189526E81A
:1001E000230F0296A11DB11DD2CF1F920F920FB601
:1001F0000F9211242F933F934F935F936F937F93AD
:100200008F939F93AF93BF93CF93DF93EF93FF931E
:10021000C0910201D0910301BE0190E080E00E94F4
:100220009303209104013091050140910601509102
:1002300007010E9421040E948E0420E030E44CE972
:1002400054E40E94210420E030E44CE954E40E948C
:1002500086020E9464032196D0930301C093020199
:1002600020910801309109012C173D0720F41092CC
:100270000301109202019B0120553109253C49E000
:10028000340714F024EC39E037FF02C030E020E0FE
:100290003093890020938800605B7F4F653C89E044
:1002A000780714F064EC79E077FF02C070E060E05A
:1002B00070938B0060938A00FF91EF91DF91CF9153
:1002C000BF91AF919F918F917F916F915F914F916E
:1002D0003F912F910F900FBE0F901F90189578941B
:1002E00084B5826084BD84B5816084BD85B582603B
:1002F00085BD85B5816085BD80916E0081608093EC
:100300006E00109281008091810082608093810054
:100310008091810081608093810080918000816064
:10032000809380008091B10084608093B1008091BF
:10033000B00081608093B00080917A0084608093E7
:100340007A0080917A00826080937A0080917A00AE
:10035000816080937A0080917A00806880937A002F
:100360001092C10089E00E948C008AE00E948C00FB
:1003700080EB8093800081E18093810084EC99E0A0
:1003800090938700809386001092890010928800D5
:1003900010928B0010928A0080E280936F00789414
:1003A00080E4B82ECC24CA9493E0D92EE12CF12C11
:1003B000C0E8DCE000E010E0B0927C0080917A00C0
:1003C000806480937A0080917A0086FDFCCF8091D2
:1003D000780020917900322F282FAAE5B0E00E9402
:1003E0007602A70196010E943502DA01C9010A9638
:1003F000A11DB11D80930001682F70E0CE010E9405
:100400001E05709309016093080190E080E00E944E
:1004100093039B01AC0169EF7FE089EC90E40E94BB
:10042000F20260930401709305018093060190939A
:1004300007012FEF83EC99E0215080409040E1F7D5
:1004400000C000000115110509F4B6CF0E9400009C
:10045000B3CF6091000170E080E89CE00E941E052F
:1004600070930901609308010895052E97FB1EF40F
:1004700000940E944C0257FD07D00E94540207FCD2
:1004800003D04EF40C944C02509540953095219534
:100490003F4F4F4F5F4F08959095809570956195B0
:1004A0007F4F8F4F9F4F0895A1E21A2EAA1BBB1BAF
:1004B000FD010DC0AA1FBB1FEE1FFF1FA217B30730
:1004C000E407F50720F0A21BB30BE40BF50B661F46
:1004D000771F881F991F1A9469F76095709580950A
:1004E00090959B01AC01BD01CF010895A29FB00181
:1004F000B39FC001A39F700D811D1124911DB29F58
:10050000700D811D1124911D08955058BB27AA27F5
:100510000E949D020C94E7030E94D90338F00E94C8
:10052000E00320F039F49F3F19F426F40C94D6032D
:100530000EF4E095E7FB0C94D003E92F0E94F8033A
:1005400058F3BA17620773078407950720F079F408
:10055000A6F50C941A040EF4E0950B2EBA2FA02DDC
:100560000B01B90190010C01CA01A0011124FF2760
:10057000591B99F0593F50F4503E68F11A16F0405B
:10058000A22F232F342F4427585FF3CF469537955A
:100590002795A795F0405395C9F77EF41F16BA0B1F
:1005A000620B730B840BBAF09150A1F0FF0FBB1FCD
:1005B000661F771F881FC2F70EC0BA0F621F731F16
:1005C000841F48F4879577956795B795F7959E3F73
:1005D00008F0B0CF9395880F08F09927EE0F979504
:1005E000879508950E9406030C94E7030E94E00398
:1005F00058F00E94D90340F029F45F3F29F00C9491
:10060000D00351110C941B040C94D6030E94F803E0
:1006100068F39923B1F3552391F3951B550BBB2731
:10062000AA2762177307840738F09F5F5F4F220F76
:10063000331F441FAA1FA9F335D00E2E3AF0E0E86D
:1006400032D091505040E695001CCAF72BD0FE2FB7
:1006500029D0660F771F881FBB1F2617370748074B
:10066000AB07B0E809F0BB0B802DBF01FF27935803
:100670005F4F3AF09E3F510578F00C94D0030C94F4
:100680001B045F3FE4F3983ED4F386957795679516
:10069000B795F7959F5FC9F7880F911D9695879538
:1006A00097F90895E1E0660F771F881FBB1F621757
:1006B00073078407BA0720F0621B730B840BBA0B15
:1006C000EE1F88F7E09508950E94000488F09F5778
:1006D00098F0B92F9927B751B0F0E1F0660F771F66
:1006E000881F991F1AF0BA95C9F714C0B13091F05C
:1006F0000E941A04B1E008950C941A04672F782F11
:100700008827B85F39F0B93FCCF386957795679520
:10071000B395D9F73EF490958095709561957F4F8C
:100720008F4F9F4F0895E89409C097FB3EF4909532
:100730008095709561957F4F8F4F9F4F9923A9F0BA
:10074000F92F96E9BB279395F69587957795679549
:10075000B795F111F8CFFAF4BB0F11F460FF1BC08D
:100760006F5F7F4F8F4F9F4F16C0882311F096E920
:1007700011C0772321F09EE8872F762F05C06623CE
:1007800071F096E8862F70E060E02AF09A95660F87
:10079000771F881FDAF7880F9695879597F9089540
:1007A00097F99F6780E870E060E008959FEF80EC24
:1007B000089500240A9416161706180609060895C7
:1007C00000240A9412161306140605060895092E2D
:1007D0000394000C11F4882352F0BB0F40F4BF2B9C
:1007E00011F460FF04C06F5F7F4F8F4F9F4F0895DC
:1007F00057FD9058440F551F59F05F3F71F04795D2
:10080000880F97FB991F61F09F3F79F087950895B6
:10081000121613061406551FF2CF4695F1DF08C0D5
:10082000161617061806991FF1CF869571056105F2
:1008300008940895E894BB2766277727CB0197F99A
:1008400008950E9434040C94E7030E94D90338F001
:100850000E94E00320F0952311F00C94D0030C9437
:10086000D60311240C941B040E94F80370F3959F87
:10087000C1F3950F50E0551F629FF001729FBB2797
:10088000F00DB11D639FAA27F00DB11DAA1F649F33
:100890006627B00DA11D661F829F2227B00DA11DE6
:1008A000621F739FB00DA11D621F839FA00D611D6C
:1008B000221F749F3327A00D611D231F849F600D8D
:1008C000211D822F762F6A2F11249F5750409AF0B6
:1008D000F1F088234AF0EE0FFF1FBB1F661F771F42
:1008E000881F91505040A9F79E3F510580F00C940D
:1008F000D0030C941B045F3FE4F3983ED4F3869539
:1009000077956795B795F795E7959F5FC1F7FE2BAC
:10091000880F911D9695879597F908959F930E944A
:1009200098040F9007FCEE5F0C94C1040C94D6035E
:100930000E940004D8F3E894E0E0BB279F57F0F052
:100940002AED3FE049EC06C0EE0FBB0F661F771F94
:10095000881F28F0B23A62077307840728F0B25A5A
:10096000620B730B840BE3959A9572F7803830F421
:100970009A95BB0F661F771F881FD2F790480C947B
:10098000D704EF93E0FF07C0A2EA2AED3FE049EC6D
:100990005FEB0E949D020E94E7030F90039401FC0D
:1009A0009058E8E6F0E00C94E3049F3F31F091505A
:1009B00020F4879577956795B795880F911D969543
:1009C000879597F908959F938F937F936F93FF93E4
:1009D000EF939B01AC010E942104EF91FF910E94D3
:1009E000F7042F913F914F915F910C942104DF9375
:1009F000CF931F930F93FF92EF92DF927B018C01B5
:100A0000689406C0DA2EEF010E943404FE01E894D7
:100A1000A5912591359145915591A6F3EF010E943D
:100A20009D02FE019701A801DA9469F7DF90EF902B
:100A3000FF900F911F91CF91DF91089597FB072EA3
:100A400016F4009407D077FD09D00E94320507FC08
:100A500005D03EF4909581959F4F089570956195CE
:100A60007F4F0895AA1BBB1B51E107C0AA1FBB1FE4
:100A7000A617B70710F0A61BB70B881F991F5A952A
:100A8000A9F780959095BC01CD010895EE0FFF1F49
:0C0A90000590F491E02D0994F894FFCF3C
:020A9C003C001C
:00000001FF
