:100000000C9462000C948A000C948A000C948A0070
:100010000C948A000C948A000C948A000C948A0038
:100020000C948A000C948A000C94F5000C948A00BD
:100030000C948A000C948A000C948A000C948A0018
:100040000C94AB000C948A000C948A000C948A00E7
:100050000C948A000C948A000C948A000C948A00F8
:100060000C948A000C948A0005A84CCDB2D44EB9E9
:100070003836A9020C50B9918688083CA6AAAA2A4B
:10008000BE000000803F00000000250028002B007B
:1000900000000000240027002A00040404040404D3
:1000A0000404020202020202030303030303010227
:1000B00004081020408001020408102001020408F6
:1000C0001020FC0111241FBECFEFD8E0DEBFCDBF52
:1000D00011E0A0E0B1E0EEEBF8E002C005900D9277
:1000E000A230B107D9F721E0A2E0B1E001C01D9232
:1000F000A331B207E1F710E0C2E6D0E004C02197D7
:10010000FE010E945704C136D107C9F70E946F0152
:100110000C945D040C94000090E0FC01E255FF4F4C
:10012000249186569F4FFC018491882399F090E09A
:10013000880F991FFC01E057FF4FA591B491FC0176
:10014000EA57FF4F859194918FB7F894EC91E22B89
:10015000EC938FBF08951F920F920FB60F92112448
:100160002F933F938F939F93AF93BF9380910F01F2
:1001700090911001A0911101B091120130910E01E6
:1001800023E0230F2D3758F50196A11DB11D2093B3
:100190000E0180930F0190931001A0931101B09371
:1001A000120180910A0190910B01A0910C01B09174
:1001B0000D010196A11DB11D80930A0190930B01C1
:1001C000A0930C01B0930D01BF91AF919F918F91BE
:1001D0003F912F910F900FBE0F901F90189526E81A
:1001E000230F0296A11DB11DD2CF1F920F920FB601
:1001F0000F9211242F933F934F935F936F937F93AD
:100200008F939F93AF93BF93CF93DF93EF93FF931E
:10021000C0910201D0910301BE0190E080E00E94F4
:10022000A4022091040130910501409106015091F2
:1002300007010E9432030E949F0320E030E44CE952
:1002400054E40E94320320E030E44CE954E40E947C
:1002500009020E9475022196D0930301C093020106
:1002600020910801309109012C173D0720F41092CC
:100270000301109202019B0128503109253C49E0FD
:10028000340714F024EC39E037FF02C030E020E0FE
:100290003093890020938800685F7F4F653C89E038
:1002A000780714F064EC79E077FF02C070E060E05A
:1002B00070938B0060938A00FF91EF91DF91CF9153
:1002C000BF91AF919F918F917F916F915F914F916E
:1002D0003F912F910F900FBE0F901F90189578941B
:1002E00084B5826084BD84B5816084BD85B582603B
:1002F00085BD85B5816085BD80916E0081608093EC
:100300006E00109281008091810082608093810054
:100310008091810081608093810080918000816064
:10032000809380008091B10084608093B1008091BF
:10033000B00081608093B00080917A0084608093E7
:100340007A0080917A00826080937A0080917A00AE
:10035000816080937A0080917A00806880937A002F
:100360001092C10089E00E948C008AE00E948C00FB
:1003700080EB8093800081E18093810084EC99E0A0
:1003800090938700809386001092890010928800D5
:1003900010928B0010928A0080E280936F00789414
:1003A000CCE305E310E086EDC82E8AECD82E82EF70
:1003B000E82E8DE3F82E90E0A92E90E0B92EC093A0
:1003C00000011093090100930801C0920401D0922A
:1003D0000501E0920601F09207012FEF83EC99E00E
:1003E000215080409040E1F700C00000A114B1040A
:1003F00031F30E940000E3CF6091000170E08CE6D1
:100400009CE00E942F0470930901609308010895F5
:100410005058BB27AA270E9420020C94F8020E9481
:10042000EA0238F00E94F10220F039F49F3F19F4FB
:1004300026F40C94E7020EF4E095E7FB0C94E1023D
:10044000E92F0E94090358F3BA176207730784075C
:10045000950720F079F4A6F50C942B030EF4E095A3
:100460000B2EBA2FA02D0B01B90190010C01CA016E
:10047000A0011124FF27591B99F0593F50F4503E19
:1004800068F11A16F040A22F232F342F4427585F0B
:10049000F3CF469537952795A795F0405395C9F723
:1004A0007EF41F16BA0B620B730B840BBAF09150DB
:1004B000A1F0FF0FBB1F661F771F881FC2F70EC07A
:1004C000BA0F621F731F841F48F48795779567954D
:1004D000B795F7959E3F08F0B0CF9395880F08F039
:1004E0009927EE0F9795879508950E94110388F03C
:1004F0009F5798F0B92F9927B751B0F0E1F0660FE8
:10050000771F881F991F1AF0BA95C9F714C0B13028
:1005100091F00E942B03B1E008950C942B03672FF8
:10052000782F8827B85F39F0B93FCCF38695779557
:100530006795B395D9F73EF4909580957095619540
:100540007F4F8F4F9F4F0895E89409C097FB3EF46B
:1005500090958095709561957F4F8F4F9F4F992310
:10056000A9F0F92F96E9BB279395F695879577958E
:100570006795B795F111F8CFFAF4BB0F11F460FF4E
:100580001BC06F5F7F4F8F4F9F4F16C0882311F0A6
:1005900096E911C0772321F09EE8872F762F05C0BA
:1005A000662371F096E8862F70E060E02AF09A9555
:1005B000660F771F881FDAF7880F9695879597F94A
:1005C000089597F99F6780E870E060E008959FEFD5
:1005D00080EC089500240A941616170618060906DA
:1005E000089500240A9412161306140605060895A9
:1005F000092E0394000C11F4882352F0BB0F40F431
:10060000BF2B11F460FF04C06F5F7F4F8F4F9F4F70
:10061000089557FD9058440F551F59F05F3F71F0F2
:100620004795880F97FB991F61F09F3F79F0879559
:100630000895121613061406551FF2CF4695F1DFE2
:1006400008C0161617061806991FF1CF8695710572
:10065000610508940895E894BB2766277727CB01A6
:1006600097F908950E9445030C94F8020E94EA024B
:1006700038F00E94F10220F0952311F00C94E10271
:100680000C94E70211240C942C030E94090370F3CC
:10069000959FC1F3950F50E0551F629FF001729F27
:1006A000BB27F00DB11D639FAA27F00DB11DAA1F36
:1006B000649F6627B00DA11D661F829F2227B00D83
:1006C000A11D621F739FB00DA11D621F839FA00D0E
:1006D000611D221F749F3327A00D611D231F849F5E
:1006E000600D211D822F762F6A2F11249F575040B5
:1006F0009AF0F1F088234AF0EE0FFF1FBB1F661F30
:10070000771F881F91505040A9F79E3F510580F0F8
:100710000C94E1020C942C035F3FE4F3983ED4F375
:10072000869577956795B795F795E7959F5FC1F79C
:10073000FE2B880F911D9695879597F908959F93A5
:100740000E94A9030F9007FCEE5F0C94D2030C9457
:10075000E7020E941103D8F3E894E0E0BB279F571B
:10076000F0F02AED3FE049EC06C0EE0FBB0F661F2C
:10077000771F881F28F0B23A62077307840728F0B2
:10078000B25A620B730B840BE3959A9572F780381B
:1007900030F49A95BB0F661F771F881FD2F79048D9
:1007A0000C94E803EF93E0FF07C0A2EA2AED3FE0D4
:1007B00049EC5FEB0E9420020E94F8020F90039424
:1007C00001FC9058E8E6F0E00C94F4039F3F31F010
:1007D000915020F4879577956795B795880F911D6F
:1007E0009695879597F908959F938F937F936F932D
:1007F000FF93EF939B01AC010E943203EF91FF91B5
:100800000E9408042F913F914F915F910C94320305
:10081000DF93CF931F930F93FF92EF92DF927B01B1
:100820008C01689406C0DA2EEF010E944503FE0198
:10083000E894A5912591359145915591A6F3EF0145
:100840000E942002FE019701A801DA9469F7DF9067
:10085000EF90FF900F911F91CF91DF91089597FB3B
:10086000072E16F4009407D077FD09D00E944304A8
:1008700007FC05D03EF4909581959F4F08957095A3
:1008800061957F4F0895AA1BBB1B51E107C0AA1FAA
:10089000BB1FA617B70710F0A61BB70B881F991F21
:1008A0005A95A9F780959095BC01CD010895EE0F5A
:0E08B000FF1F0590F491E02D0994F894FFCFFE
:0208BE003C00FC
:00000001FF
